S00B00005543312E7372656350
S11300000C9434000C9449000C9449000C9449005D
S11300100C9449000C9449000C9449000C94490038
S11300200C9449000C9449000C9449000C94490028
S11300300C9449000C9449000C9493000C944900CE
S11300400C9449000C9449000C94D0000C94490081
S11300500C9449000C9449000C9449000C944900F8
S11300600C9449000C94490011241FBECFEFD8E032
S1130070DEBFCDBF11E0A0E0B1E0E8E3F2E002C0F2
S113008005900D92AA33B107D9F70E940A010C9486
S11300901A010C94000014BC95E095BD16BC87BDF4
S11300A082E080936E0008959093C5008093C4000D
S11300B088E98093C10086E08093C2000895E0EC53
S11300C0F0E0908195FFFDCF8093C6000895FF92E4
S11300D00F931F93CF93DF938C01FC0180818823BE
S11300E0B1F0C0E0D1E0F12C0E945F00CF5FF801D5
S11300F0EC0FF11D80819D2FCF3F09F49F2D992393
S113010031F09D2F811101C09F2D9111EDCF8DE014
S11301100E945F008AE00E945F00DF91CF911F91EF
S11301200F91FF9008951F920F920FB60F92112412
S11301302F933F934F935F936F937F938F939F93EB
S1130140AF93BF93EF93FF938091010190910201CC
S1130150019690930201809301018035910578F016
S113016080910001813059F498B180E2892788B9DF
S11301708AE20E945F001092020110920101FF9135
S1130180EF91BF91AF919F918F917F916F915F910B
S11301904F913F912F910F900FBE0F901F90189584
S11301A01F920F920FB60F9211242F933F934F93E8
S11301B05F936F937F938F939F93AF93BF93EF93CB
S11301C0FF938091C6008337A1F4809100018130B0
S11301D049F483E091E00E9467001092000188B125
S11301E018B807C083E191E00E94670081E0809322
S11301F00001FF91EF91BF91AF919F918F917F91FA
S11302006F915F914F913F912F910F900FBE0F907F
S11302101F90189580E287B988B9789483EC0E947E
S11302204B0087E690E00E94540087E291E00E9430
S10B02306700FFCFF894FFCF33
S113023801010041727265742068656172746265B7
S11302486174004C616E63656D656E7420686561E8
S11302587274626561740044656D61727261676588
S10D026820647520726F626F740049
S9030000FC
