S00B00005543312E7372656350
S11300000C9434000C9449000C9449000C9449005D
S11300100C9449000C9449000C9449000C94490038
S11300200C9449000C9449000C9449000C94490028
S11300300C9449000C9449000C944B000C94490016
S11300400C9449000C9449000C9449000C94490008
S11300500C9449000C9449000C9449000C944900F8
S11300600C9449000C94490011241FBECFEFD8E032
S1130070DEBFCDBF11E0A0E0B1E0E4E0F1E002C0FA
S113008005900D92A230B107D9F70E9479000C9423
S113009080000C9400001F920F920FB60F9211244F
S11300A02F938F939F93809100019091010101966A
S11300B090930101809300018C3D9F4F40F098B1D3
S11300C080E2892788B910920101109200019F9162
S11300D08F912F910F900FBE0F901F90189514BC05
S11300E081E085BD16BC86EF87BD82E080936E00FB
S11300F0089580E287B988B978940E946F00FFCF91
S1070100F894FFCF9D
S10501040100F4
S9030000FC
