:100000000C9434000C9449000C9449000C94490061
:100010000C9449000C9449000C9449000C9449003C
:100020000C9449000C9449000C9449000C9449002C
:100030000C9449000C9449000C944B000C9449001A
:100040000C9449000C9449000C9449000C9449000C
:100050000C9449000C9449000C9449000C944900FC
:100060000C9449000C94490011241FBECFEFD8E036
:10007000DEBFCDBF11E0A0E0B1E0E2E0F1E002C000
:1000800005900D92A230B107D9F70E9471000C942F
:100090007F000C9400001F920F920FB60F92112454
:1000A0002F938F939F93809100019091010101966E
:1000B0009093010180930001893E934050F098B1E4
:1000C00080E2892788B981E090E0909301018093D4
:1000D00000019F918F912F910F900FBE0F901F9055
:1000E000189580E287B988B9789414BC81E085BD01
:1000F00016BC8CE987BD82E080936E00FFCFF89438
:02010000FFCF2F
:020102000100FA
:00000001FF
