:100000000C9434000C9449000C9449000C94490061
:100010000C9449000C9449000C9449000C9449003C
:100020000C9449000C9449000C9449000C9449002C
:100030000C9449000C9449000C945D000C94490008
:100040000C9449000C9449000C9449000C9449000C
:100050000C9449000C9449000C9449000C944900FC
:100060000C9449000C94490011241FBECFEFD8E036
:10007000DEBFCDBF11E0A0E0B1E0E0E5F1E002C0FD
:1000800005900D92A230B107D9F70E949F000C9401
:10009000A6000C94000014BC81E085BD16BC86EF60
:1000A00087BD82E080936E000895E0ECF0E09081DF
:1000B00095FFFDCF8093C60008951F920F920FB653
:1000C0000F9211242F933F934F935F936F937F93DE
:1000D0008F939F93AF93BF93EF93FF938091000112
:1000E00090910101019690930101809300018C3D54
:1000F0009F4FA0F098B180E2892788B981E690E00F
:100100000E94550082E690E00E94550083E690E050
:100110000E9455001092010110920001FF91EF9191
:10012000BF91AF919F918F917F916F915F914F910F
:100130003F912F910F900FBE0F901F90189580E266
:1001400087B988B978940E944B00FFCFF894FFCF0D
:020150000100AC
:00000001FF
