S00B00005543312E7372656350
S11300000C9434000C943E000C943E000C943E007E
S11300100C943E000C943E000C943E000C943E0064
S11300200C943E000C943E000C943E000C943E0054
S11300300C943E000C943E000C9440000C943E0042
S11300400C943E000C943E000C943E000C943E0034
S11300500C943E000C943E000C943E000C943E0024
S11300600C943E000C943E0011241FBECFEFD8E048
S1130070DEBFCDBF0E9452000C9460000C940000BF
S11300801F920F920FB60F9211248F939F9398B1E2
S113009080E2892788B99F918F910F900FBE0F90AE
S11300A01F90189580E287B988B9789414BC81E0D0
S11300B085BD16BC88EC87BD82E080936E00FFCFBF
S10700C0F894FFCFDE
S9030000FC
