:100000001BC035C034C033C032C06CC030C02FC03C
:100010003DC02DC02CC02BC02AC029C0A8C0C3C061
:10002000EAC0E9C0CBC0D0C0D2C0E5C0E4C0BDC00A
:10003000D3C0D6C0D8C0DBC011241FBECFE5D2E0EC
:10004000DEBFCDBF10E0A0E6B0E0E2EAF2E002C021
:1000500005900D92A236B107D9F720E0A2E6B0E0F4
:1000600001C01D92A636B207E1F7E0D018C1C8CF93
:1000700083E987B98EEE86B913B8089524B185B1A6
:1000800090E0982F8827820F911D08951F920F925C
:100090000FB60F9211242F933F934F935F936F935B
:1000A0007F938F939F93AF93BF93EF93FF93E6DF7D
:1000B0008C32914020F081E08093620002C0109267
:1000C0006200FF91EF91BF91AF919F918F917F91CE
:1000D0006F915F914F913F912F910F900FBE0F90B5
:1000E0001F9018951F920F920FB60F9211242F9305
:1000F0003F934F935F936F937F938F939F93AF93B0
:10010000BF93EF93FF93209163002F5F20936300D1
:100110009091600041E050E0223010F440E050E067
:10012000892F90E084239523892B81F080916100B1
:10013000893011F480E103C08091610089E08093EF
:100140006100809161009CD010926300FF91EF915B
:10015000BF91AF919F918F917F916F915F914F91DF
:100160003F912F910F900FBE0F901F9018951F92E7
:100170000F920FB60F9211242F933F934F935F93DB
:100180006F937F938F939F93AF93BF93EF93FF935F
:100190008FB1482F50E0FA013197ED30F10558F555
:1001A000E15FFF4F099485E007C0809162008823DA
:1001B00011F082E001C081E08FB925C05FDF80933C
:1001C000640090936500F8CF80916500F5CF909121
:1001D000600081E0892701C081E08093600013C046
:1001E0001092600010C01092600053D00CC01092AA
:1001F000600052D008C0982F907F903121F4109267
:1002000060008F703DD080E48EB9FF91EF91BF9177
:10021000AF919F918F917F916F915F914F913F919E
:100220002F910F900FBE0F901F90189580E187BB04
:1002300088BB17D021D00CD01BDF02D07894FFCF21
:10024000B99A87B38A7F87BB88E18DB96E9A089582
:100250008CB58CBD1ABC85E083BF89B7826089BF2D
:10026000089580B7886880BF8CB580648CBD8CE0B1
:100270008BBD8CE98DBD08958CB580618CBD0895D2
:10028000813110F080E103C0843008F484E08BBD3C
:1002900008958BB58F5FF4CF8BB58150F1CFF89473
:0202A000FFCF8E
:0202A200010C4D
:00000001FF
