S00B00005543312E7372656350
S11300000C9484000C94A1000C94A1000C94A10005
S11300100C94A1000C94A1000C94A1000C94A100D8
S11300200C94A1000C94A1000C94A1000C94A100C8
S11300300C94A1000C94A1000C94C2010C94A10096
S11300400C94A1000C94A1000C9407020C94A10040
S11300500C94A1000C94A1000C94A1000C94A10098
S11300600C94A1000C94A1005C02B9028202B902B2
S1130070B902B902B902B902B902B902B902B902A4
S1130080B902B902B902B902B902B902B902B90294
S1130090B902B902B902B902B902B902B902B90284
S11300A0B902B902B902B902B902B902B902B90274
S11300B0B902B902B902B902B902B902B902B90264
S11300C0B902B902B902B902B902B902B902B90254
S11300D0B902B9022702B902B9024E023B02B902BF
S11300E0B902B902B902B902B902B502AE02B90243
S11300F0B902A7024702B9025502B902B902B9020C
S1130100B902B902B902400211241FBECFEFD8E0F0
S1130110DEBFCDBF11E0A0E0B1E0EAEEF5E002C041
S113012005900D92A237B107D9F721E0A2E7B1E01B
S113013001C01D92A437B207E1F70E94D5020C94C6
S1130140F3020C9400000E941901209A579A5F9AB6
S1130150289A089510927301109272015F9A289A56
S113016080E090E00E94460180E090E00E94570108
S11301700895CF93DF93EC0180917201882319F0E5
S11301800E94AA000BC081E0809372015F9A289AB2
S1130190CE010E944601CE010E945701DF91CF910A
S11301A00895CF93DF93EC0180917201882319F0B5
S11301B00E94AA000BC081E0809372015F98289886
S11301C0CE010E944601CE010E945701DF91CF91DA
S11301D00895CF93DF93EC0180917301882319F084
S11301E00E94AA000BC081E0809373015F98289A53
S11301F0CE010E944601CE010E945701DF91CF91AA
S11302000895CF93DF93EC0180917301882319F053
S11302100E94AA000BC081E0809373015F9A289822
S1130220CE010E944601CE010E945701DF91CF9179
S1130230089584B1866084B985B1897F85B983E0E6
S11302408093800089E08093810008952091880044
S11302508091890090E0982F8827820F911D08953E
S113026020918A0080918B0090E0982F8827820F3C
S1130270911D0895E0E8F0E08081806A808308950C
S1130280E0E8F0E080818F7080830895CF93DF935E
S1130290EC01892B19F40E94400102C00E943A012A
S11302A0D0938900C0938800DF91CF910895CF93B4
S11302B0DF93EC01892B19F40E94400102C00E94D3
S11302C03A01D0938B00C0938A00DF91CF910895B7
S11302D084B1886284B9249882E58CBD08958EBD6A
S11302E00DB407FEFDCF08958EBD0DB407FEFDCFFE
S11302F08EB5089514BC95E095BD16BC87BD82E00B
S113030080936E0008959093C5008093C40088E99B
S11303108093C10086E08093C2000895E0ECF0E091
S1130320908195FFFDCF8093C6000895FF920F93AF
S11303301F93CF93DF938C01FC0180818823B1F05C
S1130340C0E0D1E0F12C0E948E01CF5FF801EC0FE8
S1130350F11D80819D2FCF3F09F49F2D992331F00A
S11303609D2F811101C09F2D9111EDCF8DE00E9431
S11303708E018AE00E948E01DF91CF911F910F912F
S1130380FF9008951F920F920FB60F9211242F938E
S11303903F934F935F936F937F938F939F93AF9309
S11303A0BF93EF93FF938091030190910401019611
S11303B0909304018093030180359105B8F08091F6
S11303C00201813099F498B180E2892788B98AE2E0
S11303D00E948E0181E00E947401853019F48EE53B
S11303E00E948E011092040110920301FF91EF917B
S11303F0BF91AF919F918F917F916F915F914F9139
S11304003F912F910F900FBE0F901F9018951F9240
S11304100F920FB60F9211242F933F934F935F9334
S11304206F937F938F939F93AF93BF93CF93EF93E8
S1130430FF93C091C6008C2F90E0FC01BB97E03580
S1130440F10508F096C0EC5CFF4F0C94ED0280912E
S11304500201813041F485E091E00E9496011092FE
S11304600201459890C085E191E00E94960181E0E7
S11304708093020188C089E291E00E94960183C0C2
S113048080910001909101010E94B9007CC080918B
S11304900001909101010E94E90075C08091000162
S11304A0909101010E9401016EC080910001909120
S11304B001010E94D10067C0809100019091010167
S11304C08F3F934048F4809100019091010101967F
S11304D090930101809300010E942601892B31F041
S11304E080910001909101010E9446010E94300117
S11304F0892B09F448C080910001909101010E9468
S1130500570141C080910001909101018739910503
S113051048F08091000190910101019790930101AD
S1130520809300010E942601892B31F08091000103
S1130530909101010E9446010E943001892B19F11A
S113054080910001909101010E9457011CC08BE031
S11305500E946F018CE00E946F0115C08BE00E9425
S11305606F018DE00E946F010EC086E00E946F0152
S11305700AC08EE30E948E018C2F0E948E018CE3B0
S113058091E00E949601FF91EF91CF91BF91AF91BD
S11305909F918F917F916F915F914F913F912F9197
S11305A00F900FBE0F901F90189580E287B988B9FD
S11305B0789487E690E00E94830184E591E00E94AC
S11305C0960183EC0E947A010E94A3000E946801B4
S11305D08AE691E00E949601FFCFEE0FFF1F05907F
S10D05E0F491E02D0994F894FFCF84
S11305EA20030101004172726574206865617274A6
S11305FA62656174004C616E63656D656E74206832
S113060A656172746265617400446562757420641C
S113061A6961676E6F73746971756500203D3E2068
S113062A436F6D6D616E646520696E636F6E6E757E
S113063A6520210044656D61727261676520647585
S113064A20726F626F742E2E2E002E2E2E4F4B2187
S105065A00009A
S9030000FC
