S00B00005543312E7372656350
S11300000C9484000C94A1000C94A1000C94A10005
S11300100C94A1000C94A1000C94A1000C94A100D8
S11300200C94A1000C94A1000C94A1000C94A100C8
S11300300C94A1000C94A1000C94AE010C94A100AA
S11300400C94A1000C94A1000C94EB010C94A1005D
S11300500C94A1000C94A1000C94A1000C94A10098
S11300600C94A1000C94A10040028A0265028A0249
S11300708A028A028A028A028A028A028A028A021C
S11300808A028A028A028A028A028A028A028A020C
S11300908A028A028A028A028A028A028A028A02FC
S11300A08A028A028A028A028A028A028A028A02EC
S11300B08A028A028A028A028A028A028A028A02DC
S11300C08A028A028A028A028A028A028A028A02CC
S11300D08A028A020B028A028A0232021F028A02FE
S11300E08A028A028A028A028A028A028A028A02AC
S11300F08A028A022B028A0239028A028A028A024C
S11301008A028A028A02240211241FBECFEFD8E099
S1130110DEBFCDBF11E0A0E0B1E0E4E8F5E002C04D
S113012005900D92A836B107D9F721E0A8E6B1E011
S113013001C01D92AA36B207E1F70E94A6020C94F0
S1130140C0020C940000209A579A5F9A289A089546
S113015010926901109268015F9A289A80E090E0F9
S11301600E94440180E090E00E9455010895CF93DD
S1130170DF93EC0180916801882319F00E94A800A4
S11301800BC081E0809368015F9A289ACE010E9497
S11301904401CE010E945501DF91CF910895CF9380
S11301A0DF93EC0180916801882319F00E94A80074
S11301B00BC081E0809368015F982898CE010E946B
S11301C04401CE010E945501DF91CF910895CF9350
S11301D0DF93EC0180916901882319F00E94A80043
S11301E00BC081E0809369015F98289ACE010E9438
S11301F04401CE010E945501DF91CF910895CF9320
S1130200DF93EC0180916901882319F00E94A80012
S11302100BC081E0809369015F9A2898CE010E9407
S11302204401CE010E945501DF91CF91089584B11C
S1130230866084B985B1897F85B983E08093800025
S113024089E080938100089520918800809189003D
S113025090E0982F8827820F911D089520918A009D
S113026080918B0090E0982F8827820F911D08952C
S1130270E0E8F0E08081806A80830895E0E8F0E0BF
S113028080818F7080830895CF93DF93EC01892B55
S113029019F40E943E0102C00E943801D0938900E3
S11302A0C0938800DF91CF910895CF93DF93EC0141
S11302B0892B19F40E943E0102C00E943801D09398
S11302C08B00C0938A00DF91CF91089514BC95E010
S11302D095BD16BC87BD82E080936E00089590930F
S11302E0C5008093C40088E98093C10086E08093B0
S11302F0C2000895E0ECF0E0908195FFFDCF80937B
S1130300C6000895FF920F931F93CF93DF938C0140
S1130310FC0180818823B1F0C0E0D1E0F12C0E947F
S11303207A01CF5FF801EC0FF11D80819D2FCF3F43
S113033009F49F2D992331F09D2F811101C09F2D28
S11303409111EDCF8DE00E947A018AE00E947A013A
S1130350DF91CF911F910F91FF9008951F920F92FB
S11303600FB60F9211242F933F934F935F936F9384
S11303707F938F939F93AF93BF93EF93FF9380915A
S11303800301909104010196909304018093030169
S11303908035910578F080910201813059F498B14B
S11303A080E2892788B98AE20E947A0110920401C6
S11303B010920301FF91EF91BF91AF919F918F91A3
S11303C07F916F915F914F913F912F910F900FBE4D
S11303D00F901F9018951F920F920FB60F92112431
S11303E02F933F934F935F936F937F938F939F9339
S11303F0AF93BF93CF93EF93FF93C091C6008C2F1D
S113040090E0FC01BB97E035F10508F083C0EC5C9B
S1130410FF4F0C94BA0280910201813041F485E0CF
S113042091E00E9482011092020145987DC085E10D
S113043091E00E94820181E08093020175C089E20B
S113044091E00E94820170C08091000190910101AD
S11304500E94B70069C080910001909101010E943F
S1130460E70062C080910001909101010E94FF00A9
S11304705BC080910001909101010E94CF0054C0A3
S113048080910001909101018F3F934048F4809145
S11304900001909101010196909301018093000164
S11304A00E942401892B31F0809100019091010177
S11304B00E9444010E942E01892BB1F18091000118
S11304C0909101010E9455012FC0809100019091EB
S11304D001018739910548F0809100019091010153
S11304E0019790930101809300010E942401892BBC
S11304F031F080910001909101010E9444010E9419
S11305002E01892B89F080910001909101010E94B4
S113051055010AC08EE30E947A018C2F0E947A0151
S11305208CE391E00E948201FF91EF91CF91BF9102
S1130530AF919F918F917F916F915F914F913F9177
S11305402F910F900FBE0F901F90189580E287B9DE
S113055088B9789483EC0E94660187E690E00E9453
S11305606F010E94170184E591E00E9482010E94BC
S1130570A300FFCFEE0FFF1F0590F491E02D099427
S1070580F894FFCF19
S1130584200301010041727265742068656172740C
S113059462656174004C616E63656D656E74206898
S11305A46561727462656174004465627574206483
S11305B46961676E6F73746971756500203D3E20CF
S11305C4436F6D6D616E646520696E636F6E6E75E5
S11305D46520210044656D617272616765206475EC
S10B05E420726F626F740000C5
S9030000FC
