S00B00005543312E7372656350
S11300000C9434000C9449000C9449000C9449005D
S11300100C9449000C9449000C9449000C94490038
S11300200C9449000C9449000C9449000C94490028
S11300300C9449000C9449000C94B0000C944900B1
S11300400C9449000C9449000C94ED000C94490064
S11300500C9449000C9449000C9449000C944900F8
S11300600C9449000C94490011241FBECFEFD8E032
S1130070DEBFCDBF11E0A0E0B1E0EAE1F3E002C0F1
S113008005900D92AA36B107D9F70E9477010C9416
S11300908B010C94000084B1866084B985B1897F9A
S11300A085B983E08093800089E08093810008957E
S11300B09093890080938800089590938B00809397
S11300C08A000895E0E8F0E08081806F80830895DD
S11300D014BC95E095BD16BC87BD82E080936E008C
S11300E008959093C5008093C40088E98093C1006B
S11300F086E08093C2000895E0ECF0E0908195FFE3
S1130100FDCF8093C6000895FF920F931F93CF9362
S1130110DF938C01FC0180818823B1F0C0E0D1E041
S1130120F12C0E947C00CF5FF801EC0FF11D80815F
S11301309D2FCF3F09F49F2D992331F09D2F8111DD
S113014001C09F2D9111EDCF8DE00E947C008AE0CB
S11301500E947C00DF91CF911F910F91FF90089531
S11301601F920F920FB60F9211242F933F934F9328
S11301705F936F937F938F939F93AF93BF93EF930B
S1130180FF938091050190910601019690930601D9
S1130190809305018035910578F0809104018130C8
S11301A059F498B180E2892788B98AE20E947C00D8
S11301B01092060110920501FF91EF91BF91AF914A
S11301C09F918F917F916F915F914F913F912F916B
S11301D00F900FBE0F901F9018951F920F920FB69D
S11301E00F9211242F933F934F935F936F937F93B9
S11301F08F939F93AF93BF93CF93EF93FF93C0914C
S1130200C600C53619F128F4C13661F0C436D9F1F7
S113021052C0C33709F443C0CA37E9F0C13709F003
S11302204AC025C080910401813041F487E091E007
S11302300E94840010920401459847C087E191E030
S11302400E94840081E0809304013FC08BE291E02E
S11302500E9484003AC080910201909103010196AA
S113026090930301809302010E9458002EC0809154
S1130270020190910301019790930301809302017D
S11302800E94580022C080910001909101010196C2
S113029090930101809300010E945D0016C080913B
S11302A00001909101010197909301018093000155
S11302B00E945D000AC08EE30E947C008C2F0E9485
S11302C07C008EE391E00E948400FF91EF91CF9136
S11302D0BF91AF919F918F917F916F915F914F915A
S11302E03F912F910F900FBE0F901F90189580E2B1
S11302F087B988B9789483EC0E94680087E690E017
S11303000E9471000E944B0086E591E00E948400E7
S10D03100E946200FFCFF894FFCFB3
S113031A58025802010100417272657420686561CD
S113032A727462656174004C616E63656D656E74A6
S113033A20686561727462656174004465627574EB
S113034A20646961676E6F73746971756500203D15
S113035A3E20436F6D6D616E646520696E636F6ED6
S113036A6E756520210044656D617272616765204E
S10D037A647520726F626F74000056
S9030000FC
