S00B00005543312E7372656350
S11300000C9484000C94A1000C94A1000C94A10005
S11300100C94A1000C94A1000C94A1000C94A100D8
S11300200C94A1000C94A1000C94A1000C94A100C8
S11300300C94A1000C94A1000C94CA010C94A1008E
S11300400C94A1000C94A1000C9445020C94A10002
S11300500C94A1000C94A1000C94A1000C94A10098
S11300600C94A1000C94A100A8021303CE02130364
S113007013031303130313031303130313031303CC
S113008013031303130313031303130313031303BC
S113009013031303130313031303130313031303AC
S11300A0130313031303130313031303130313039C
S11300B0130313031303130313031303130313038C
S11300C0130313031303130313031303130313037C
S11300D0130313036502130313039A027902130330
S11300E013031303130313031303FB02F702130392
S11300F0FF02F30293021303A10213031303130376
S11301001303130313038C0211241FBECFEFD8E093
S1130110DEBFCDBF11E0A0E0B1E0EEE9F6E002C041
S113012005900D92A43EB107D9F721E0A4EEB1E009
S113013001C01D92A93EB207E1F70E942F030C945F
S11301404D030C9400000E941901209A579A5F9A5B
S1130150289A08951092E5011092E4015F9A289A72
S113016080E090E00E94460180E090E00E94570108
S11301700895CF93DF93EC018091E401882319F073
S11301800E94AA000BC081E08093E4015F9A289A40
S1130190CE010E944601CE010E945701DF91CF910A
S11301A00895CF93DF93EC018091E401882319F043
S11301B00E94AA000BC081E08093E4015F98289814
S11301C0CE010E944601CE010E945701DF91CF91DA
S11301D00895CF93DF93EC018091E501882319F012
S11301E00E94AA000BC081E08093E5015F98289AE1
S11301F0CE010E944601CE010E945701DF91CF91AA
S11302000895CF93DF93EC018091E501882319F0E1
S11302100E94AA000BC081E08093E5015F9A2898B0
S1130220CE010E944601CE010E945701DF91CF9179
S1130230089584B1866084B985B1897F85B983E0E6
S11302408093800089E08093810008952091880044
S11302508091890090E0982F8827820F911D08953E
S113026020918A0080918B0090E0982F8827820F3C
S1130270911D0895E0E8F0E08081806A808308950C
S1130280E0E8F0E080818F7080830895CF93DF935E
S1130290EC01892B19F40E94400102C00E943A012A
S11302A0D0938900C0938800DF91CF910895CF93B4
S11302B0DF93EC01892B19F40E94400102C00E94D3
S11302C03A01D0938B00C0938A00DF91CF910895B7
S11302D084B1886284B9249883E58CBD08958EBD69
S11302E00DB407FEFDCF08958EBD0DB407FEFDCFFE
S11302F083EF91E00197F1F71EBC0DB407FEFDCF2B
S11303008EB5089514BC95E095BD16BC87BD82E0FA
S113031080936E0008959093C5008093C40088E98B
S11303208093C10086E08093C2000895E0ECF0E081
S1130330908195FFFDCF8093C6000895FF920F939F
S11303401F93CF93DF938C01FC0180818823B1F04C
S1130350C0E0D1E0F12C0E949601CF5FF801EC0FD0
S1130360F11D80819D2FCF3F09F49F2D992331F0FA
S11303709D2F811101C09F2D9111EDCF8DE00E9421
S113038096018AE00E949601DF91CF911F910F910F
S1130390FF9008951F920F920FB60F921124FF92AF
S11303A00F931F932F933F934F935F936F937F9379
S11303B08F939F93AF93BF93CF93DF93EF93FF9369
S11303C08091E8018F5F8093E801803568F0809127
S11303D00201813049F498B180E2892788B98AE220
S11303E00E9496011092E8018091E7018F5F80934B
S11303F0E7018032A0F189E00E947401823069F53E
S113040083E091E00E949E018EE00E947401F82E28
S113041084E00E947401082F10E085E00E947401BA
S1130420C82FD0E0DC2FCC27C00FD11F85E091E08E
S11304300E949E018F2D0E9496018CE20E949601DB
S11304408C2F0E9496018AE191E00E949E01809186
S1130450E601811102C00E94AA001092E701FF91F7
S1130460EF91DF91CF91BF91AF919F918F917F9148
S11304706F915F914F913F912F911F910F91FF9039
S11304800F900FBE0F901F9018951F920F920FB6EA
S11304900F9211242F933F934F935F936F937F9306
S11304A08F939F93AF93BF93CF93EF93FF93C09199
S11304B0C6008C2F90E0FC01BB97E035F10508F0F5
S11304C0B2C0EC5CFF4F0C94470380910201813071
S11304D041F48CE191E00E949E0110920201459842
S11304E0ACC08CE291E00E949E0181E08093020105
S11304F0A4C080E491E00E949E0181E00E94740106
S1130500853029F483E591E00E949E0196C08BE535
S113051091E00E949E0191C080910001909101019F
S11305200E94B9008AC080910001909101010E944B
S1130530E90083C080910001909101010E940101B2
S11305407CC080910001909101010E94D10075C08E
S113055080910001909101018F3F934048F4809174
S11305600001909101010196909301018093000193
S11305700E942601892B31F08091000190910101A4
S11305800E9446010E943001892B09F456C08091D3
S11305900001909101010E9457014FC08091000118
S11305A0909101018739910548F080910001909163
S11305B00101019790930101809300010E9426019B
S11305C0892B31F080910001909101010E94460134
S11305D00E943001892B89F18091000190910101E1
S11305E00E9457012AC08CE00E946F0126C08DE052
S11305F00E946F0122C086E00E946F011EC090918C
S1130600E60181E089278093E6018091E601882351
S113061029F084E691E00E949E010FC088E891E0F1
S11306200E949E010AC08EE30E9496018C2F0E94B4
S113063096018FEA91E00E949E01FF91EF91CF9184
S1130640BF91AF919F918F917F916F915F914F91E6
S11306503F912F910F900FBE0F901F90189580E23D
S113066087B988B987E690E00E948B0187EC91E016
S11306700E949E0183EC0E9482010E94A3000E94BA
S113068068018DED91E00E949E017894FFCFEE0FFA
S1110690FF1F0590F491E02D0994F894FFCF1C
S113069E2003015F004F62737461636C6520706F99
S11306AE736974696F6E3A207B007D0041727265C6
S11306BE7420686561727462656174004C616E6366
S11306CE656D656E7420686561727462656174002F
S11306DE446562757420646961676E6F73746971C1
S11306EE7565005350493A204F4B005350493A20F8
S11306FE4E4F4B004C6573206F62737461636C656F
S113070E73206E65207365726F6E7420706C7573D2
S113071E20747261697465004C6573206F62737422
S113072E61636C6573207365726F6E74206D61699D
S113073E6E74656E616E74207472616974650020E6
S113074E3D3E20436F6D6D616E646520696E636F0F
S113075E6E6E756520210044656D61727261676508
S113076E20647520726F626F742E2E2E002E2E2E24
S107077E4F4B2100B8
S9030000FC
