S00B00005543312E7372656350
S11300000C9484000C94A1000C94A1000C94A10005
S11300100C94A1000C94A1000C94A1000C94A100D8
S11300200C94A1000C94A1000C94A1000C94A100C8
S11300300C94A1000C94A1000C94C2010C94A10096
S11300400C94A1000C94A1000C9431020C94A10016
S11300500C94A1000C94A1000C94A1000C94A10098
S11300600C94A1000C94A1008602F702AC02F702E2
S1130070F702F702F702F702F702F702F702F702B4
S1130080F702F702F702F702F702F702F702F702A4
S1130090F702F702F702F702F702F702F702F70294
S11300A0F702F702F702F702F702F702F702F70284
S11300B0F702F702F702F702F702F702F702F70274
S11300C0F702F702F702F702F702F702F702F70264
S11300D0F702F7025102F702F70278026502F7020B
S11300E0F702F702F702F702F702DF02D802F7027B
S11300F0E302D1027102F7027F02F702F702F7026C
S1130100F702F702F7026A0211241FBECFEFD8E00C
S1130110DEBFCDBF11E0A0E0B1E0E6E6F6E002C04C
S113012005900D92A23DB107D9F721E0A2EDB1E00F
S113013001C01D92A73DB207E1F70E9413030C947E
S113014031030C9400000E941901209A579A5F9A77
S1130150289A08951092D3011092D2015F9A289A96
S113016080E090E00E94460180E090E00E94570108
S11301700895CF93DF93EC018091D201882319F085
S11301800E94AA000BC081E08093D2015F9A289A52
S1130190CE010E944601CE010E945701DF91CF910A
S11301A00895CF93DF93EC018091D201882319F055
S11301B00E94AA000BC081E08093D2015F98289826
S11301C0CE010E944601CE010E945701DF91CF91DA
S11301D00895CF93DF93EC018091D301882319F024
S11301E00E94AA000BC081E08093D3015F98289AF3
S11301F0CE010E944601CE010E945701DF91CF91AA
S11302000895CF93DF93EC018091D301882319F0F3
S11302100E94AA000BC081E08093D3015F9A2898C2
S1130220CE010E944601CE010E945701DF91CF9179
S1130230089584B1866084B985B1897F85B983E0E6
S11302408093800089E08093810008952091880044
S11302508091890090E0982F8827820F911D08953E
S113026020918A0080918B0090E0982F8827820F3C
S1130270911D0895E0E8F0E08081806A808308950C
S1130280E0E8F0E080818F7080830895CF93DF935E
S1130290EC01892B19F40E94400102C00E943A012A
S11302A0D0938900C0938800DF91CF910895CF93B4
S11302B0DF93EC01892B19F40E94400102C00E94D3
S11302C03A01D0938B00C0938A00DF91CF910895B7
S11302D084B1886284B9249882E58CBD08958EBD6A
S11302E00DB407FEFDCF08958EBD0DB407FEFDCFFE
S11302F08EB5089514BC95E095BD16BC87BD82E00B
S113030080936E0008959093C5008093C40088E99B
S11303108093C10086E08093C2000895E0ECF0E091
S1130320908195FFFDCF8093C6000895FF920F93AF
S11303301F93CF93DF938C01FC0180818823B1F05C
S1130340C0E0D1E0F12C0E948E01CF5FF801EC0FE8
S1130350F11D80819D2FCF3F09F49F2D992331F00A
S11303609D2F811101C09F2D9111EDCF8DE00E9431
S11303708E018AE00E948E01DF91CF911F910F912F
S1130380FF9008951F920F920FB60F9211242F938E
S11303903F934F935F936F937F938F939F93AF9309
S11303A0BF93CF93DF93EF93FF938091D6018F5F39
S11303B08093D6018035A8F080910201813089F4C0
S11303C098B180E2892788B98AE20E948E0181E08F
S11303D00E947401853019F48EE50E948E011092FA
S11303E0D6018091D5018F5F8093D501883030F19B
S11303F089E00E9474018230F9F48EE00E94740155
S1130400D82F84E00E947401C82F83E091E00E94F9
S113041096018D2F0E948E018CE20E948E018C2FFA
S11304200E948E0188E191E00E9496018091D4019E
S1130430811102C00E94AA001092D501FF91EF9190
S1130440DF91CF91BF91AF919F918F917F916F91E8
S11304505F914F913F912F910F900FBE0F901F907E
S113046018951F920F920FB60F9211242F933F935A
S11304704F935F936F937F938F939F93AF93BF93A8
S1130480CF93EF93FF93C091C6008C2F90E0FC01B3
S1130490BB97E035F10508F0AAC0EC5CFF4F0C9463
S11304A02B0380910201813041F48AE191E00E94A2
S11304B09601109202014598A4C08AE291E00E943C
S11304C0960181E0809302019CC08EE391E00E943A
S11304D0960197C080910001909101010E94B9009A
S11304E090C080910001909101010E94E90089C0AF
S11304F080910001909101010E94010182C08091CC
S11305000001909101010E94D1007BC08091000103
S1130510909101018F3F934048F4809100019091A4
S11305200101019690930101809300010E9426012C
S1130530892B31F080910001909101010E944601C4
S11305400E943001892B09F45CC0809100019091D4
S113055001010E94570155C0809100019091010151
S11305608739910548F0809100019091010101972C
S113057090930101809300010E942601892B31F0A0
S113058080910001909101010E9446010E94300176
S1130590892BB9F180910001909101010E945701CA
S11305A030C08BE00E946F018CE00E946F0129C073
S11305B08BE00E946F018DE00E946F0122C086E0F3
S11305C00E946F011EC09091D40181E0892780931D
S11305D0D4018091D401882329F081E591E00E941F
S11305E096010FC085E791E00E9496010AC08EE350
S11305F00E948E018C2F0E948E018CE991E00E9452
S11306009601FF91EF91CF91BF91AF919F918F91FF
S11306107F916F915F914F913F912F910F900FBEFA
S11306200F901F90189580E287B988B9789487E66F
S113063090E00E94830184EB91E00E94960183EC98
S11306400E947A010E94A3000E9468018AEC91E052
S11306500E949601FFCFEE0FFF1F0590F491E02D4D
S10906600994F894FFCF99
S11306662003014F62737461636C6520706F736954
S113067674696F6E3A207B007D0041727265742046
S1130686686561727462656174004C616E63656D60
S1130696656E742068656172746265617400446590
S11306A662757420646961676E6F737469717565C8
S11306B6004C6573206F62737461636C6573206E9E
S11306C665207365726F6E7420706C757320747216
S11306D661697465004C6573206F62737461636C41
S11306E66573207365726F6E74206D61696E7465CF
S11306F66E616E742074726169746500203D3E20DB
S1130706436F6D6D616E646520696E636F6E6E75A1
S11307166520210044656D617272616765206475A8
S113072620726F626F742E2E2E002E2E2E4F4B21AA
S10507360000BD
S9030000FC
