:100000000EC028C027C026C025C05CC023C022C0A7
:1000100030C020C01FC01EC01DC01CC01BC011248A
:100020001FBECFE5D2E0DEBFCDBF10E0A0E6B0E05E
:10003000EAE8F1E002C005900D92A236B107D9F7C7
:1000400020E0A2E6B0E001C01D92A336B207E1F7BE
:1000500078D099C0D5CF83E987B98EEE86B913B829
:10006000089524B185B190E0982F8827820F911DC3
:1000700008951F920F920FB60F9211242F933F9362
:100080004F935F936F937F938F939F93AF93BF93A0
:10009000EF93FF93E6DF8039914010F0C09A01C0E2
:1000A000C098FF91EF91BF91AF919F918F917F91F8
:1000B0006F915F914F913F912F910F900FBE0F90D5
:1000C0001F9018951F920F920FB60F9211242F9325
:1000D0003F934F935F936F937F938F939F93AF93D0
:1000E000BF93EF93FF93809162008F5F80936200D4
:1000F0008823B1F080916000853021F48DE08093F9
:10010000600009C08D3021F485E08093600003C059
:1001100085E0809360008091600033D0109262008F
:10012000FF91EF91BF91AF919F918F917F916F91CF
:100130005F914F913F912F910F900FBE0F901F90A5
:10014000189581E187BB0ED018D003D084DF789456
:10015000FFCF8CB58CBD1ABC85E083BF89B78260A8
:1001600089BF089580B7886880BF8CB580648CBDD6
:100170008CE08BBD8CE98DBD08958CB580618CBD04
:0A01800008958BBD0895F894FFCF99
:02018A000C0067
:00000001FF
