:100000000EC028C027C026C025C05FC023C022C0A4
:1000100030C020C01FC01EC01DC01CC095C0112410
:100020001FBECFE5D2E0DEBFCDBF10E0A0E6B0E05E
:10003000E4E4F2E002C005900D92A236B107D9F7D0
:1000400020E0A2E6B0E001C01D92A636B207E1F7BB
:10005000CAD0F6C0D5CF83E987B98EEE86B913B87A
:10006000089524B185B190E0982F8827820F911DC3
:1000700008951F920F920FB60F9211242F933F9362
:100080004F935F936F937F938F939F93AF93BF93A0
:10009000EF93FF93E6DF8C32914020F081E0809374
:1000A000620002C010926200FF91EF91BF91AF9188
:1000B0009F918F917F916F915F914F913F912F9180
:1000C0000F900FBE0F901F9018951F920F920FB6B2
:1000D0000F9211242F933F934F935F936F937F93CE
:1000E0008F939F93AF93BF93EF93FF9380916300A0
:1000F0008F5F809363008823B1F08091600085302A
:1001000021F48DE08093600009C08D3021F485E0FA
:100110008093600003C085E0809360008091600060
:100120008DD010926300FF91EF91BF91AF919F919D
:100130008F917F916F915F914F913F912F910F9090
:100140000FBE0F901F9018951F920F920FB60F922F
:1001500011242F933F934F935F936F937F938F93CC
:100160009F93AF93BF93EF93FF9398B380E1892759
:1001700088BB8FB18430B1F018F4813031F01CC0ED
:100180008530B9F0893021F017C085E08FB914C0EF
:1001900080916200882319F082E08FB90DC081E060
:1001A0008FB90AC05EDF80936400909365008FB9B9
:1001B00003C0809165008FB980E48EB998B380E167
:1001C000892788BBFF91EF91BF91AF919F918F914C
:1001D0007F916F915F914F913F912F910F900FBE43
:1001E0000F901F90189580E187BBBC9AC49817D0D8
:1001F00021D00CD030DF02D07894FFCFB99A87B3EA
:100200008A7F87BB88E18DB96E9A08958CB58CBDC5
:100210001ABC85E083BF89B7826089BF089580B723
:10022000886880BF8CB580648CBD8CE08BBD8CE908
:100230008DBD08958CB580618CBD08958BBD0895EA
:04024000F894FFCF60
:020244000C00AC
:00000001FF
