S00B00005543322E737265634F
S11300001BC035C034C033C032C06CC030C02FC038
S11300103DC02DC02CC02BC02AC029C0AEC0CDC04D
S1130020FAC0F9C0D7C0DDC0E0C0F5C0F4C0C8C094
S1130030E3C0E6C0E8C0EBC011241FBECFE5D2E0A8
S1130040DEBFCDBF10E0A0E6B0E0ECECF2E002C011
S113005005900D92A236B107D9F720E0A2E6B0E0F0
S113006001C01D92A636B207E1F7F0D02DC1C8CF6A
S113007083E987B98EEE86B913B8089524B185B1A2
S113008090E0982F8827820F911D08951F920F9258
S11300900FB60F9211242F933F934F935F936F9357
S11300A07F938F939F93AF93BF93EF93FF93E6DF79
S11300B08C32914020F081E08093620002C0109263
S11300C06200FF91EF91BF91AF919F918F917F91CA
S11300D06F915F914F913F912F910F900FBE0F90B1
S11300E01F9018951F920F920FB60F9211242F9301
S11300F03F934F935F936F937F938F939F93AF93AC
S1130100BF93EF93FF93909163009F5F909363007D
S113011021E030E0923010F420E030E09091600073
S1130120892F90E082239323892BB1F08091610081
S1130130853021F48DE08093610009C08D3021F475
S113014085E08093610003C085E080936100809125
S11301506100A6D010926300FF91EF91BF91AF911F
S11301609F918F917F916F915F914F913F912F91CB
S11301700F900FBE0F901F9018951F920F920FB6FD
S11301800F9211242F933F934F935F936F937F9319
S11301908F939F93AF93BF93EF93FF9398B380E1B3
S11301A0892788BB8FB1482F50E0FA013197ED3091
S11301B0F10588F5E15FFF4F099485E08FB933C0FD
S11301C080916200882319F082E08FB92CC081E00D
S11301D08FB929C053DF80936400909365008FB971
S11301E022C0809165008FB91EC09091600081E0AB
S11301F089278093600017C081E08093600013C05A
S11302001092600010C01092600056D00CC0109282
S1130210600056D008C0982F907F903121F410923E
S113022060008F703DD080E48EB9FF91EF91BF9153
S1130230AF919F918F917F916F915F914F913F917A
S11302402F910F900FBE0F901F90189580E187BBE0
S113025088BB17D021D00CD00BDF02D07894FFCF0D
S1130260B99A87B38A7F87BB88E18DB96E9A08955E
S11302708CB58CBD1ABC85E083BF89B7826089BF09
S1130280089580B7886880BF8CB580648CBD8CE08D
S11302908BBD8CE98DBD08958CB580618CBD0895AE
S11302A0813118F080E18BBD0895843018F484E026
S11302B08BBD08958BBD08958BB58F5FF1DF0895D5
S10F02C08BB58150EDDF0895F894FFCF5A
S10502CC010C1F
S9030000FC
