:100000000EC01DC01CC01BC01AC019C018C017C02C
:1000100016C015C014C013C012C011C010C01124E6
:100020001FBECFE5D2E0DEBFCDBF20E0A0E6B0E04E
:1000300001C01D92A236B207E1F702D02AC0E0CF7C
:1000400025E030E010926100109260008091600025
:1000500090916100843F9140ACF780916000909155
:100060006100883C910521F4309361002093600089
:10007000809160009091610001969093610080935F
:1000800060008091600090916100843F91402CF36A
:06009000D9CFF894FFCF68
:00000001FF
